:0400000080316828BB
:100008007E14803120007F08FC002100911E6328A7
:100018002000911E6328480A031D3328490A031D3E
:10002800332823001908F900FA0179082000C800CC
:100038007A08C900C81B2228FF302F284A08F9006F
:100048007908F000480883318E238031013A03197A
:100058006128FF302000C800FF30C90061284A0A23
:10006800031D61284B0A031D612823001908F900A4
:10007800FA0179082000CA007A08CB004A08F9007A
:100088007908F0004808833139238031FA007A086A
:10009800F50020004A08FB007B08F000480883317F
:1000A800842380318031CC20FF302000CA00FF300B
:1000B800CB004B08C9004A08C800200091127C08F0
:1000C8002000FF007E10090080316A28203084005B
:1000D800003085001D308331A6238031A030840094
:1000E8000030850032308331A62380318331B1233B
:1000F8008031C8008331B2238031C9008331B323F2
:100108008031CA008331B423CB007E1020008031B7
:100118008D2883319F23803183314E238031823172
:100128009922803183316123803183319823803152
:1001380083310B2380318231C12280318231F32215
:1001480080318231DB2280318331AC2380316030D1
:100158002000BD000030BE008131A4218031603014
:100168002000BD000030BE0081316F218031603039
:100178002000BD000030BE0081313A21803160305E
:100188002000BD000030BE00813105218031CB2820
:10019800F800F6287508F600F7017608F0007708E9
:1001A800F1008231692208007508F600F701760827
:1001B800F0007708F1008231392208007508F6004E
:1001C800F7017608F0007708F1008231092208006B
:1001D8007508F600F7017608F0007708F10081311C
:1001E800D92108007808003A0319CE28013A0319E2
:1001F800D828033A0319E228013A0319EC280429FC
:100208000800003020003E02243003193D02031884
:100218000F292430172900303E029E3003193D0271
:10022800031C1A299D30BD000030BE00CF30BF002E
:100238003F0826009A0520003D080239BF00033018
:10024800BF35FF3E031D24293F35C0004008260066
:100258009A0420003E08C0003D08BF00C036BF0C0D
:10026800C036BF0C3F082600980008000030200068
:100278003E02243003193D020318442924304C2936
:1002880000303E029E3003193D02031C4F299D3069
:10029800BD000030BE00CF30BF003F0826009305E8
:1002A80020003D080239BF000330BF35FF3E031D63
:1002B80059293F35C00040082600930420003E0815
:1002C800C0003D08BF00C036BF0CC036BF0C3F0899
:1002D800260091000800003020003E022430031957
:1002E8003D02031879292430812900303E029E30CE
:1002F80003193D02031C84299D30BD000030BE0057
:10030800CF30BF003F0825009A0520003D0802397C
:10031800BF000330BF35FF3E031D8E293F35C000A7
:10032800400825009A0420003E08C0003D08BF0090
:10033800C036BF0CC036BF0C3F0825009800080027
:10034800003020003E02243003193D020318AE2974
:100358002430B62900303E029E3003193D02031CAA
:10036800B9299D30BD000030BE00CF30BF003F0826
:100378002500930520003D080239BF000330BF3532
:10038800FF3E031DC3293F35C000400825009304E4
:1003980020003E08C0003D08BF00C036BF0CC03674
:1003A800BF0C3F082500910008000030710224307E
:1003B800031970020318E2292430EA290030710277
:1003C8009E3003197002031CED299D30F0000030A7
:1003D800F100CF30F200720826009A057008023941
:1003E800F2000330F235FF3E031DF6297235F300A3
:1003F80073089A047108F3007008F200F336F20CDF
:10040800F336F20C720898000800003071022430AC
:10041800031970020318122A24301A2A00307102B4
:100428009E3003197002031C1D2A9D30F000003015
:10043800F100CF30F20072082600930570080239E7
:10044800F2000330F235FF3E031D262A7235F30011
:10045800730893047108F3007008F200F336F20C85
:10046800F336F20C72089100080000307102243053
:10047800031970020318422A24304A2A00307102F4
:100488009E3003197002031C4D2A9D30F000003085
:10049800F100CF30F200720825009A057008023981
:1004A800F2000330F235FF3E031D562A7235F30081
:1004B80073089A047108F3007008F200F336F20C1E
:1004C800F336F20C720898000800003071022430EC
:1004D800031970020318722A24307A2A0030710234
:1004E8009E3003197002031C7D2A9D30F0000030F5
:1004F800F100CF30F2007208250093057008023928
:10050800F2000330F235FF3E031D862A7235F300F0
:10051800730893047108F3007008F200F336F20CC4
:10052800F336F20C720891000800A030833173236F
:1005380082312000C3004308CC00BD010930C3004C
:100548004308BE0034308331232382312000BD01AB
:100558000930C3004308BE0022308331232382318F
:100568002000BD010930C3004308BE002B30833191
:1005780023232000A001A101080022009D152100CD
:100588008C170C3025009A0000302000BD00BE00FA
:1005980081316F21823125009E1520009311931D12
:1005A800D32A7F30C100410821008C0508002100B2
:1005B8000C160C3026009A0000302000BD00BE004A
:1005C80081313A21823125009E1720009311931D15
:1005D800EB2AEF30C100410821008C0508002100FA
:1005E8008C150C302600930000302000BD00BE00A2
:1005F80081313A21823125009E1620009311931DE6
:10060800032BF730C100410821008C0508002100A8
:100618008D150C302500930000302000BD00BE0071
:100628008131A421833125009E1420009311931D4C
:100638001B2BF730C100410821008D050800200060
:10064800C100C2013E084202031808003D08BF006D
:1006580042084107C0004008860087013F08810022
:100668000130BF003F08C207262BF300F4017308CE
:100678000139F1000630F135FF3E031D3F2B71357E
:10068800F2007208F40470087F39F1007108F4046C
:100698007408080020008C0123008C0121008C01C3
:1006A80020008D0123008D01123021008D001030B3
:1006B80024008D0021009513080022009D131E10B0
:1006C80023001D169E161E121E119F1519309B0021
:1006D8009D172000911E0800230019086D2B20008B
:1006E800BD003D08031D7A2B003008003D08860038
:1006F800870181013D0A8600870181013D080800C4
:10070800F2007208F1000330F136890B882B71086A
:1007180003390800F2007208F1000530F136890B40
:10072800922B710803390800FF3028009D00033020
:100738009E001E15080021009915191299161917FF
:1007480098010800640080010131890BA72B00344F
:10075800210091160B178B170800FF34FF34FF3464
:02076800FF345C
:020000040001F9
:04000E00E4C9FFDD65
:00000001FF
