:0400000080317428AF
:100008007E14803120007F08FC002100911E6428A6
:100018002000911E6428290A031D33282A0A031D7B
:10002800332823001908F900FA0179082000A900EB
:100038007A08AA00A91B2228FF302F282B08F900CC
:100048007908F0002908833177238031013A0319B0
:100058006228FF302000A900FF30AA0062282B0A7E
:10006800031D62282C0A031D622823001908F900C1
:10007800FA0179082000AB007A08AC002B08F900D7
:100088007908F000290883311C238031FA007A08A6
:10009800F50020002B08FB007B08F00029088331BD
:1000A8006D238031813135218031FF302000AB0054
:1000B800FF30AC002C08AA002B08A90020009112E0
:1000C8002000931C70280130F9007908AD07013031
:1000D800F9007908AE0793107C08FF007E1009002C
:1000E80080317628AD01AE017E10200080317C2859
:1000F80083319B23803183313123803183315623EF
:1001080080318331442380318331812380318331AD
:100118009323803183318A238031833104238031D2
:100128008231BA2280318231EC2280318231D4226C
:10013800803100302000A000A1008131F2218031FF
:1001480000302000A000A1008131C621803100309C
:100158002000A000A10081319A21803100302000C8
:10016800A000A10081316E2180318331A22380312A
:100178000A3020002D06031D142921001D140D30FE
:100188002000A600FB30A500A50BC828A60BC82890
:10019800003221009D149D18CF281C082000A500BE
:1001A8002508A70021001D103E30833162238031CD
:1001B80020002708A5000430A536890BE02825086B
:1001C8000F39A6002608A8000A302802031CEE28CA
:1001D8005730EF283030A5002508A80728088331B4
:1001E80062238031200027080F39A5002508A800C0
:1001F8000A302802031C0229573003293030A50091
:100208002508A807280883316223803168308331A4
:10021800622380313C308331622380312000AD017C
:100228002E0A031DBC280030A000A1008131F22154
:10023800803100302000A000A1008131C62180312A
:1002480000302000A000A10081319A2180310030C7
:100258002000A000A10081316E2180312000AE0174
:10026800BC28F8005F297508F600F7017608F00049
:100278007708F1008231932208007508F600F7012B
:100288007608F0007708F10082316C2208007508C2
:10029800F600F7017608F0007708F1008231452270
:1002A80008007508F600F7017608F0007708F100F5
:1002B80082311E2208007808003A03193729013ACA
:1002C80003194129033A03194B29013A03195529FE
:1002D8006D29080004302000210200300319200293
:1002E800031C7A29FF30A0000330A100CF30A20000
:1002F800220826009A05200020080239A2000330AF
:10030800A235FF3E031D84292235A30023082600B9
:100318009A0420002108A3002008A200A336A20CFA
:10032800A336A20C220826009800080004302000FA
:100338002102003003192002031CA629FF30A00067
:100348000330A100CF30A200220826009305200028
:1003580020080239A2000330A235FF3E031DB02950
:100368002235A30023082600930420002108A300B7
:100378002008A200A336A20CA336A20C220826004D
:1003880091000800043020002102003003192002E7
:10039800031CD229FF30A0000330A100CF30A200F7
:1003A800220825009A05200020080239A2000330FF
:1003B800A235FF3E031DDC292235A30023082500B2
:1003C8009A0420002108A3002008A200A336A20C4A
:1003D800A336A20C2208250098000800043020004B
:1003E8002102003003192002031CFE29FF30A0005F
:1003F8000330A100CF30A200220825009305200079
:1004080020080239A2000330A235FF3E031D082A46
:100418002235A30023082500930420002108A30007
:100428002008A200A336A20CA336A20C220825009D
:100438009100080004307102003003197002031C97
:10044800292AFF30F0000330F100CF30F2007208A3
:1004580026009A0570080239F2000330F235FF3E93
:10046800031D322A7235F30073089A047108F300E9
:100478007008F200F336F20CF336F20C72089800AA
:10048800080004307102003003197002031C502A5E
:10049800FF30F0000330F100CF30F2007208260080
:1004A800930570080239F2000330F235FF3E031D50
:1004B800592A7235F300730893047108F300700821
:1004C800F200F336F20CF336F20C720891000800D1
:1004D80004307102003003197002031C772AFF30C0
:1004E800F0000330F100CF30F200720825009A05C1
:1004F80070080239F2000330F235FF3E031D802AEE
:100508007235F30073089A047108F3007008F2005A
:10051800F336F20CF336F20C720898000800043037
:100528007102003003197002031C9E2AFF30F0008C
:100538000330F100CF30F2007208250093057008EF
:100548000239F2000330F235FF3E031DA72A723547
:10055800F300730893047108F3007008F200F3368F
:10056800F20CF336F20C72089100080022009D1577
:1005780021008C170C3025009A0000302000A000C4
:10058800A1008131C621823125009E1520009311DA
:10059800931DCC2A7F30A400240821008C05080074
:1005A80021000C160C3026009A0000302000A00014
:1005B800A10081319A21823125009E1720009311D4
:1005C800931DE42AEF30A400240821008C050800BC
:1005D80021008C150C302600930000302000A0006C
:1005E800A10081319A21823125009E1620009311A5
:1005F800931DFC2AF730A400240821008C0508006C
:1006080021008D150C302500930000302000A0003B
:10061800A1008131F221833125009E14200093111D
:10062800931D142BF730A400240821008D05080021
:10063800F300F40173080139F1000630F135FF3E8B
:10064800031D222B7135F2007208F40470087F39FB
:10065800F1007108F4047408080020008C012300DC
:100668008C0121008C0120008D01103023008D00A9
:10067800123021008D0024008D01210095130800FF
:1006880022009D131E1023001D169E161E121E15F5
:100698009F1508309B009D172000911E080023001D
:1006A8001908502BFF302000A900FF30AA00FF30A6
:1006B800AB00FF30AC00AD01AE0108002000A00087
:1006C80023009E1C642B2000200823009A000000B1
:1006D8000800F2007208F1000330F136890B712B23
:1006E800710803390800F2007208F1000530F1368C
:1006F800890B7B2B71080339080028009501FF300E
:1007080096007730970020009310080021009D0183
:100718009E019D161E081E081E081E080800FF30B0
:1007280028009D0007309E0020009311080021003A
:100738009915191299161917980108002100931490
:0807480091160B178B17080036
:020000040001F9
:04000E00E4C9FFDD65
:00000001FF
